:020000040800F2
:10000000000002205DA80008E52E0008E72E000889
:10001000E92E0008EB2E0008ED2E0008000000007D
:10002000000000000000000000000000E163000884
:10003000EF2E00080000000081640008FB6000084B
:10004000ADA80008ADA80008ADA80008ADA800083C
:10005000ADA80008ADA80008ADA80008F12E000862
:10006000ADA80008ADA80008ADA80008ADA800081C
:10007000ADA80008FD2E0008ADA80008ADA8000836
:100080000D2F00081D2F0008ADA80008ADA800081E
:100090002D2F00083D2F0008ADA80008ADA80008CE
:1000A000ADA80008ADA80008ADA80008ADA80008DC
:1000B0004D2F0008ADA80008ADA80008ADA80008A5
:1000C000ADA80008ADA80008ADA80008ADA80008BC
:1000D000ADA800085D2F0008792F0008ADA8000822
:1000E000ADA80008ADA80008ADA80008ADA800089C
:1000F000ADA80008ADA80008ADA80008ADA800088C
:10010000ADA80008ADA80008ADA80008ADA800087B
:10011000892F0008ADA80008ADA80008ADA8000808
:10012000ADA80008ADA80008A52F0008ADA80008DC
:10013000ADA80008ADA80008ADA80008ADA800084B
:10014000B52F0008C52F0008ADA80008ADA800080D
:10015000ADA80008ADA80008D52F0008ADA800087C
:10016000ADA80008ADA80008ADA80008ADA800081B
:10017000ADA80008ADA80008ADA800080000000068
:08018000ADA80008ADA80008BD
:10019000F0B400EB4003DFF8880000EBC30000F18F
:1001A00018063069F7687568874232D3B368DC1B7C
:1001B000631E934214D37D19D01900BF11F8013B7F
:1001C00005F8013B013A05D011F8013B05F8013B68
:1001D000013AF3D1BFF35F8FF0600120F0BC7047AC
:1001E000C018904219D37819121B11F8013B00F87E
:1001F000013B013CF9D1141C05D011F8013B05F875
:10020000013B013AF9D1BFF35F8FF4600120F0BCEC
:100210007047C01B01389042CDD20020F0BC70471F
:100220004421012010F8012B11F8013B012A28BFBD
:100230009A42F7D0D01A7047034613F8012B002AD0
:10024000FBD1181A0138704781F0004102E000BF6D
:1002500083F0004330B54FEA41044FEA430594EA86
:10026000050F08BF90EA020F1FBF54EA000C55EAC1
:10027000020C7FEA645C7FEA655C00F0E2804FEA92
:100280005454D4EB5555B8BF6D420CDD2C4480EA74
:10029000020281EA030382EA000083EA010180EAA4
:1002A000020281EA0303362D88BF30BD11F0004FF2
:1002B0004FEA01314FF4801C4CEA113102D0404228
:1002C00061EB410113F0004F4FEA03334CEA133363
:1002D00002D0524263EB430394EA050F00F0A7807B
:1002E000A4F10104D5F1200E0DDB02FA0EFC22FA76
:1002F00005F2801841F1000103FA0EF2801843FA6A
:1003000005F359410EE0A5F120050EF1200E012A5A
:1003100003FA0EFC28BF4CF0020C43FA05F3C01898
:1003200051EBE37101F0004507D54FF0000EDCF111
:10033000000C7EEB00006EEB0101B1F5801F1BD3BA
:10034000B1F5001F0CD349085FEA30004FEA3C0CBE
:1003500004F101044FEA445212F5800F80F09A80B4
:10036000BCF1004F08BF5FEA500C50F1000041EBB8
:10037000045141EA050130BD5FEA4C0C404141EBBC
:100380000101013C28BFB1F5801FE9D291F0000FB7
:1003900004BF01460020B1FA81F308BF2033A3F166
:1003A0000B03B3F120020CDA0C3208DD02F1140C5D
:1003B000C2F10C0201FA0CF021FA02F10CE002F198
:1003C0001402D8BFC2F1200C01FA02F120FA0CFC91
:1003D000DCBF41EA0C019040E41AA2BF01EB0451DA
:1003E000294330BD6FEA04041F3C1CDA0C340EDCD8
:1003F00004F11404C4F1200220FA04F001FA02F31B
:1004000040EA030021FA04F345EA030130BDC4F1D8
:100410000C04C4F1200220FA02F001FA04F340EACD
:100420000300294630BD21FA04F0294630BD94F07E
:10043000000F83F4801306BF81F480110134013D65
:100440004EE77FEA645C18BF7FEA655C29D094EAD6
:10045000050F08BF90EA020F05D054EA000C04BF54
:100460001946104630BD91EA030F1EBF002100203F
:1004700030BD5FEA545C05D14000494128BF41F0DE
:10048000004130BD14F580043CBF01F5801130BD42
:1004900001F0004545F0FE4141F470014FF00000CD
:1004A00030BD7FEA645C1ABF194610467FEA655C7E
:1004B0001CBF0B46024650EA013406BF52EA033520
:1004C00091EA030F41F4002130BD00BF90F0000F0E
:1004D00004BF0021704730B54FF4806404F132044A
:1004E0004FF000054FF0000150E700BF90F0000F03
:1004F00004BF0021704730B54FF4806404F132042A
:1005000010F0004548BF40424FF000013EE700BFF9
:1005100042004FEAE2014FEA31014FEA02701FBF89
:1005200012F07F4393F07F4F81F06051704732F0BB
:100530007F4208BF704793F07F4F04BF41F4002112
:10054000704730B54FF4607401F0004521F0004170
:100550001CE700BF50EA010208BF704730B54FF0FA
:1005600000050AE050EA010208BF704730B511F0FB
:10057000004502D5404261EB41014FF4806404F133
:1005800032045FEA915C3FF4D8AE4FF003025FEAB9
:10059000DC0C18BF03325FEADC0C18BF033202EB3D
:1005A000DC02C2F1200300FA03FC20FA02F001FA97
:1005B00003FE40EA0E0021FA02F11444BDE600BF3A
:1005C00070B54FF0FF0C4CF4E06C1CEA11541DBFE9
:1005D0001CEA135594EA0C0F95EA0C0F00F0DEF8B4
:1005E0002C4481EA030621EA4C5123EA4C5350EA99
:1005F000013518BF52EA033541F4801143F48013EA
:1006000038D0A0FB02CE4FF00005E1FB02E506F07A
:100610000042E0FB03E54FF00006E1FB03569CF0CF
:10062000000F18BF4EF0010EA4F1FF04B6F5007FD5
:1006300064F5407404D25FEA4E0E6D4146EB060647
:1006400042EAC62141EA55514FEAC52040EA5E50D0
:100650004FEACE2EB4F1FD0C88BFBCF5E06F1ED87A
:10066000BEF1004F08BF5FEA500E50F1000041EBB1
:10067000045170BD06F0004646EA010140EA02005E
:1006800081EA0301B4EB5C04C2BFD4EB0C0541EA80
:10069000045170BD41F480114FF0000E013C00F395
:1006A000AB8014F1360FDEBF002001F0004170BDB9
:1006B000C4F10004203C35DA0C341BDC04F11404D2
:1006C000C4F1200500FA05F320FA04F001FA05F25E
:1006D00040EA020001F0004221F0004110EBD3702B
:1006E00021FA04F642EB06015EEA430E08BF20EA57
:1006F000D37070BDC4F10C04C4F1200500FA04F3FA
:1007000020FA05F001FA04F240EA020001F000418B
:1007100010EBD37041F100015EEA430E08BF20EAFE
:10072000D37070BDC4F1200500FA05F24EEA020E46
:1007300020FA04F301FA05F243EA020321FA04F075
:1007400001F0004121FA04F220EA020000EBD3702C
:100750005EEA430E08BF20EAD37070BD94F0000F2C
:100760000FD101F00046400041EB010111F4801F60
:1007700008BF013CF7D041EA060195F0000F18BF11
:10078000704703F00046520043EB030313F4801F4D
:1007900008BF013DF7D043EA0603704794EA0C0F07
:1007A0000CEA135518BF95EA0C0F0CD050EA41061D
:1007B00018BF52EA4306D1D181EA030101F000419A
:1007C0004FF0000070BD50EA410606BF10461946C2
:1007D00052EA430619D094EA0C0F02D150EA0136CE
:1007E00013D195EA0C0F05D152EA03361CBF10460F
:1007F00019460AD181EA030101F0004141F0FE41AE
:1008000041F470014FF0000070BD41F0FE4141F431
:10081000780170BD70B54FF0FF0C4CF4E06C1CEA31
:1008200011541DBF1CEA135594EA0C0F95EA0C0FE6
:1008300000F0A7F8A4EB050481EA030E52EA0335A1
:100840004FEA013100F088804FEA03334FF08055C2
:1008500045EA131343EA12634FEA022245EA1115EF
:1008600045EA10654FEA00260EF000419D4208BFA0
:10087000964244F1FD0404F5407402D25B084FEA4D
:100880003202B61A65EB03055B084FEA32024FF4F9
:1008900080104FF4002CB6EB020E75EB030E22BF56
:1008A000B61A754640EA0C005B084FEA3202B6EB16
:1008B000020E75EB030E22BFB61A754640EA5C00C5
:1008C0005B084FEA3202B6EB020E75EB030E22BF55
:1008D000B61A754640EA9C005B084FEA3202B6EB56
:1008E000020E75EB030E22BFB61A754640EADC0015
:1008F00055EA060E18D04FEA051545EA16754FEA77
:1009000006164FEAC30343EA52734FEAC2025FEA94
:100910001C1CC0D111F4801F0BD141EA00014FF023
:1009200000004FF0004CB6E711F4801F04BF0143F4
:100930000020B4F1FD0C88BFBCF5E06F3FF6AFAE10
:10094000B5EB030C04BFB6EB020C5FEA500C50F1A0
:10095000000041EB045170BD0EF0004E4EEA113123
:1009600014EB5C04C2BFD4EB0C0541EA045170BD2A
:1009700041F480114FF0000E013C90E645EA060E6E
:100980008DE60CEA135594EA0C0F08BF95EA0C0F9C
:100990003FF43BAF94EA0C0F0AD150EA01347FF4E4
:1009A00034AF95EA0C0F7FF425AF104619462CE7BB
:1009B00095EA0C0F06D152EA03353FF4FDAE10461E
:1009C000194622E750EA410618BF52EA43067FF46F
:1009D000C5AE50EA41047FF40DAF52EA43057FF4FF
:1009E000EBAE12E74FEA4102B2F1E04324BFB3F5A8
:1009F000001CDCF1FE5C0DD901F0004C4FEAC00296
:100A00004CEA5070B2F1004F40EB830008BF20F079
:100A10000100704711F0804F21D113F13872BCBF33
:100A200001F00040704741F480114FEA5252C2F188
:100A30001802C2F1200C10FA0CF320FA02F018BFD1
:100A400040F001004FEAC1234FEAD32303FA0CFC24
:100A500040EA0C0023FA02F34FEA4303CCE77FEAB3
:100A6000625307D150EA01331EBF4FF0FE4040F4FD
:100A70004000704701F0004040F0FE4040F40000AC
:100A8000704700BF53B94AB9002908BF00281CBFEE
:100A90004FF0FF314FF0FF3000F0E2B8ADF1080C3D
:100AA0006DE904CE0AF094FEDDF804E0DDE90223EE
:100AB00004B0704700F1340191E838009C46A64626
:100AC0004CF8045D90E8FF0FE54600BD90EC210B6B
:100AD000704700BF80EC210B704700BF90EC200BEB
:100AE000704700BF80EC200B704700BFD0EC200B9C
:100AF000704700BFC0EC200B704700BFF0EC020154
:100B0000F0EC0211F0EC0221F0EC0231F0EC0241C9
:100B1000F0EC0251F0EC0261F0EC0271F0EC0281B9
:100B2000F0EC0291F0EC02A1F0EC02B1F0EC02C1A9
:100B3000F0EC02D1F0EC02E1F0EC02F1704700BF02
:100B4000E0EC0201E0EC0211E0EC0221E0EC023109
:100B5000E0EC0241E0EC0251E0EC0261E0EC0271F9
:100B6000E0EC0281E0EC0291E0EC02A1E0EC02B1E9
:100B7000E0EC02C1E0EC02D1E0EC02E1E0EC02F1D9
:100B8000704700BFB0FC0181B0FC0191B0FC01A135
:100B9000B0FC01B1704700BFA0FC0181A0FC019135
:100BA000A0FC01A1A0FC01B1704700BFEC4600B55C
:100BB0002DE900502DE9FF1F4FF000032DE90C0037
:100BC00001A90BF0BFF8DDF840E012B0704700BF9C
:100BD000EC4600B52DE900502DE9FF1F4FF0000352
:100BE0002DE90C0001A90BF0E9F8DDF840E012B0A6
:100BF000704700BFEC4600B52DE900502DE9FF1FFE
:100C00004FF000032DE90C0001A90BF0F9F8DDF815
:100C100040E012B0704700BFEC4600B52DE900502F
:100C20002DE9FF1F4FF000032DE90C0001AB0BF085
:100C3000BDF8DDF840E012B0704700BFEC4600B5EB
:100C40002DE900502DE9FF1F4FF000032DE90C00A6
:100C500001AA0BF02FF9DDF840E012B0704700BF99
:100C6000704700BF0348044B834202D0034B03B1DB
:100C70001847704780070020800700200000000010
:100C80000548064B1B1AD90F01EBA301491002D0EE
:100C9000034B03B1184770478007002080070020EE
:100CA0000000000010B5064C237843B9FFF7DAFFC7
:100CB000044B13B10448AFF300800123237010BD2F
:100CC000800700200000000090C8000808B5054B10
:100CD0001BB105490548AFF30080BDE80840FFF7A8
:100CE000CFBF00BF000000008407002090C80008AC
:100CF0007047000084B08DED010ACDED020A8DED44
:100D0000031A9FED020A04B0704700BF0000000004
:100D10007047704770477047014B0360704700BFD2
:100D200008C90008024A0260024A0260704700BF18
:100D300030C9000808C9000810B504460C3009F095
:100D40005BF804F1BF0009F057F804F5B97009F039
:100D500053F804F2252009F04FF810BD30B585B0E6
:100D600005460C468DED010ACDED020A8DED031A04
:100D70000379042B3BD0A74B1B68BFF35B8F13F0A9
:100D8000010F05D1A3480AF0ECF9002840F0D78004
:100D9000A14B1B68BFF35B8F13F0010F00F0DA80EB
:100DA000012C00F0E880022C00F00281002C40F0C1
:100DB00019819A4B93ED000ADDED017A20EE670A66
:100DC000974B93ED007ADDED027A67EE877A30EE8D
:100DD000270A95EDCE7ADDED037A67EE877A30EE5D
:100DE000270ADFED907A20EE270A05B030BD8E4B42
:100DF0001B68BFF35B8F13F0010F03D18A480AF021
:100E0000B0F968B9894B1B68BFF35B8F13F0010F12
:100E100011D0032C00F2E380DFE804F01D3A577490
:100E20009FED830A09F08AFD824B83ED000A7E481C
:100E30000AF0A6F9E6E77D480AF093F90028E8D021
:100E40009FED7B0A09F034FD7B4B83ED000A774868
:100E50000AF096F9DDE7774B93ED000ADDED017AB4
:100E600020EE670A744B93ED007ADDED027A67EEAF
:100E7000877A30EE270A95EDCE7ADDED037A67EEBC
:100E8000877A30EE270ADFED677A20EE270AACE793
:100E9000684B93ED000ADDED017A20EE670A664BA0
:100EA00093ED007ADDED027A67EE877A30EE670A1D
:100EB00095EDCE7ADDED037A67EE877A30EE270A7C
:100EC000DFED587A20EE270A8FE75A4BD3ED007AF0
:100ED0009DED010A20EE270A574B93ED007ADDEDD8
:100EE000027A67EE877A30EE670A95EDCE7ADDED0D
:100EF000037A67EE877A30EE270ADFED4A7A20EE32
:100F0000270A72E74B4BD3ED007A9DED010A20EEE4
:100F1000270A494B93ED007ADDED027A67EE877A76
:100F200030EE270A95EDCE7ADDED037A67EE877A0B
:100F300030EE270ADFED3B7A20EE270A55E79FEDDA
:100F40003F0A09F0FBFC354B83ED000A31480AF0FB
:100F500017F91DE730480AF004F900283FF420AFE4
:100F60009FED360A09F0A4FC2D4B83ED000A2A48B8
:100F70000AF006F914E7294BD3ED007A9DED010A3A
:100F800020EE270A264B93ED007ADDED027A67EE1C
:100F9000877A30EE670A95EDCE7ADDED037A67EE5B
:100FA000877A30EE270ADFED1F7A20EE270A1CE74A
:100FB0009DED010ADFED227A20EE270ADDED027AAF
:100FC00030EE270A95EDCE7ADDED037A67EE877A6B
:100FD00030EE270ADFED137A20EE270A05E79FEDB2
:100FE000180A02E79FED160AFFE60F480AF0C5F857
:100FF00009F068FD0D480AF0C0F809F063FD0548E6
:101000000AF0BBF809F05EFD03480AF0B6F809F0F3
:1010100059FD00BFB4070020AC070020B80700202E
:10102000B007002014793C44C4070020BC0700200E
:10103000DB0F493FC8070020C0070020920A063F87
:101040000000000000000000D0B52DED068B044626
:10105000B0EE409AB0EE608AF0EE419A0379042B2C
:1010600059D0DFED7D7A60EE277A9FED7CAA60EEA5
:101070008A8A77EEE87A61EE0AAA77EEEA7A17EEC4
:10108000900AFFF745FA72A3D3E90023FFF798FA15
:10109000FFF7A8FCC4F8DC02DFED717A69EE277A6D
:1010A0009FED707A28EE078A77EE887A9FED6E7A48
:1010B00029EE871A77EE817A17EE900AFFF728FA61
:1010C00063A3D3E90023FFF77BFAFFF78BFCC4F897
:1010D000E00229EE0A0A78EE807A7AEEA77A17EE15
:1010E000900AFFF715FA5AA3D3E90023FFF768FA2D
:1010F00006460F46D4F83803FFF70AFA02460B46B5
:1011000030463946FFF786FBFFF76CFCC4F8E40273
:10111000BDEC068BD0BDF0EE618A544B1B68BFF36B
:101120005B8F13F0010F04D150480AF01AF8002821
:1011300068D14F4B1B68BFF35B8F13F0010F6CD06E
:101140004C4BD3ED007A27EEC97A67EEC86A37EECA
:10115000267A67EEA96A37EE267A67EEA87A77EEE6
:10116000277A17EE900AFFF7D3F939A3D3E90023C2
:10117000FFF726FAFFF736FCC4F8DC023E4BD3ED4E
:10118000007A27EE897A67EEC86A37EE267A67EE2C
:10119000E96A37EE267A67EEA87A77EE277A17EEB5
:1011A000900AFFF7B5F92AA3D3E90023FFF708FA5D
:1011B000FFF718FCC4F8E00239EE088A38EE298AF5
:1011C00078EE287A17EE900AFFF7A2F920A3D3E968
:1011D0000023FFF7F5F906460F4694EDCE7AF1EEBF
:1011E000007A67EE277A17EE900AFFF791F9024628
:1011F0000B4630463946FFF70DFBFFF7F3FBC4F80B
:10120000E40285E79FED1D0A09F098FB194B83ED79
:10121000000A164809F0B4FF8BE7154809F0A1FF52
:1012200000288DD09FED150A09F042FB124B83ED8B
:10123000000A0F4809F0A4FF82E70C4809F09DFF5F
:1012400009F040FC0A4809F098FF09F03BFC00BF98
:101250001111111189BB553FABAA2A3FABAAAA3E77
:10126000000000003ACD13BF3ACD133FA407002081
:101270009C070020A8070020A0070020DB0F493FA3
:1012800070B5044690F8D832012B0FD0022B5DD0F8
:101290002BB99FED560A10EE105A10EE106AC4F8E2
:1012A0001C63C4F8205384EDC90A70BD90F8D9328C
:1012B000012B1FD0022B33D0002BF0D1D0EDBD0A73
:1012C00090EDB70A0C3008F0C3FD10EE106AD4EDB3
:1012D000BE0A94EDB80A04F1BF0008F0B9FD10EEA3
:1012E000105AD4EDBF0A94EDB90A04F5B97008F0AC
:1012F000AFFDD4E7D0EDBD0A90EDB70A0C3008F091
:10130000A7FD10EE106AD4F830331B6800EE103AD7
:10131000F0EE400A04F2252008F09AFD0025BEE711
:10132000D0EDBE0A90EDB80ABF3008F091FD10EE86
:10133000105AD4F830331B6800EE103AF0EE400A31
:1013400004F2252008F084FD0026A8E790F8D932A1
:10135000012B1FD0022B33D0002BA0D1D0EDC00A1F
:1013600090EDBA0A0C3008F073FD10EE106AD4ED5F
:10137000C10A94EDBB0A04F1BF0008F069FD10EE4C
:10138000105A94EDBC0AF0EE400A04F5B97008F06A
:101390005FFD84E7D0EDC00A90EDBA0A0C3008F08A
:1013A00057FD10EE106AD4F830331B6800EE103A87
:1013B000F0EE400A04F2252008F04AFD00256EE711
:1013C000D0EDC10A90EDBB0ABF3008F041FD10EE30
:1013D000105AD4F830331B6800EE103AF0EE400A91
:1013E00004F2252008F034FD002658E70000000034
:1013F00010B50446044B0360044B03604FF4537173
:1014000009F05EFB204610BD30C9000808C900087D
:1014100010B50446034B03604FF44E7109F050FBC6
:10142000204610BD08C900087047704770477047D4
:10143000704770470A784B7843EA0223A0F8D4310A
:1014400090F8DC21002A42D090ED767A07EE903AAF
:10145000F8EEE77A77EEC77AFDEEE77A17EE902A94
:1014600012B212F5805F29DAD0F810220132C0F8EA
:101470001022D0F8102203EB423207EE902A90EDB2
:10148000027AF8EEE77A77EEC77AFDEEE77AF8EEC1
:10149000E77A90ED867AC7EE876A90F91F2207EE09
:1014A000902AF8EEE77A86EEA77A80ED787A07EE52
:1014B000903AF8EE677AC0ED767A7047B2F5805FC1
:1014C000D7DDD0F81022013AC0F81022D1E707EE9C
:1014D000903AF8EE677AC0ED027A012280F8DC21BA
:1014E000E5E790F91E32B3F1FF3F11D0012B1FD079
:1014F0008A78CB7843EA02231BB290F91F2293FB30
:10150000F2F307EE903AF8EEE77AC0ED797A704799
:101510008A78CB7843EA02231BB290F91F2293FB0F
:10152000F2F307EE903AF8EEE77AC0ED797A704779
:101530008A78CB7843EA02231BB207EE903AF8EEA2
:10154000E77AC0ED797A7047D0F8EC31C0F8F03125
:10155000D0ED7D6AD0ED797A66EEA77AB1EE087AA1
:1015600067EE877AB7EE007A37EE667AD0ED886A52
:1015700027EE267A77EE877AC0ED7B7AC0ED887AFF
:1015800070474B7980F80032704791F90630A0F827
:101590000232704790ED7B7AD0ED7C7A37EE677A35
:1015A000DFED0D7A27EE277AD0ED826AC7EE267A34
:1015B000D0ED7D6A67EEA67AB7EE007A37EE667AEE
:1015C000D0ED896A27EE267A77EE877AC0ED7F7AAA
:1015D000C0ED897A704700BF35FA8E3C38B50446B5
:1015E0000D4603681B6A984723685B6A29462046B4
:1015F000984723689B6A204698472368DB6A2946F8
:101600002046984723681B6B29462046984738BDDB
:10161000D1ED007AFDEEE77A17EE903A1BB207EEB5
:10162000903AF8EEE77A9FED057A67EE877AFDEE5D
:10163000E77A17EE903A18B2704700BF17B7513FDC
:10164000034A0260034A0260034A0260704700BF17
:10165000F0CE0008B8CF0008B0CE000810B5064C98
:1016600005E0A4F50A7423681B6820469847034BDD
:101670009C42F6D110BD00BFA00800100000001071
:1016800010B50446054B0360054B0360054B036032
:101690004FF40A7109F014FA204610BDF0CE00088C
:1016A000B8CF0008B0CE0008F8B5044694469DF8BF
:1016B0002060324A026001710025858100F1100727
:1016C0009E46BEE80F000FC79EE8070087E80700A8
:1016D00004F12C0EBCE80F00AEE80F00BCE80F00D0
:1016E000AEE80F009CE80F008EE80F004FF4BC72CC
:1016F000069904F15C0009F08DFEA4F8D451002392
:10170000C4F8D83184F8DC51C4F8E031C4F8E431CD
:10171000C4F8E831C4F8EC31C4F8F031184AC4F820
:10172000F421184AC4F8F821C4F8FC3184F80052B6
:10173000A4F80252C4F80452C4F80832C4F80C32B7
:10174000C4F810524FF40052A4F814220E4AC4F800
:101750001822BDF91C20A4F81C2284F81E6284F80B
:101760001F52C4F82032C4F82432012E01D0204682
:10177000F8BD012384F81E32F9E700BFB0CE00089F
:10178000CDCC0C3F9A99593F610BB64108B590F802
:10179000D131022B03D0042B05D0012008BD6430C9
:1017A00008F02AFBF9E700F2171008F025FBF4E730
:1017B000C369CB6008230B7483698B60037D0B7155
:1017C00003690B604FEA222C0379013B01EB4303D1
:1017D00083F811C003795B00013B19444A747047D8
:1017E00008B5B0F91C22B0F90CC0624505DA828157
:1017F000B0F90C20FFF7DCFF08BD93B25B421BB2CF
:101800006345F5DD8381F3E770B584B004469DF848
:10181000245002954FF480460196089E0096FFF7EB
:1018200043FF0B4B23600B4B236094F91E32012BBB
:1018300007D0B3F1FF3F07D084F81F52204604B011
:1018400070BD84F81F32F9E7132384F81F32F5E7DF
:10185000B8CF0008F0CE000810B5044601211148A9
:1018600008F0DEFFC4F8280301210F4808F0D8FF74
:10187000C4F82C03042004F085FFC4F8300338B109
:101880000C2004F07FFFC4F8340330B1012010BDF8
:101890004F21064801F0B0FAF2E75121034801F068
:1018A000ABFAF3E754C9000864C9000874C900081A
:1018B00010B584B00446D0F828138B686846984762
:1018C00002AB0098019903C3B1F1FF3F01D0C4F806
:1018D000300304B010BD000010B52DED028B04469E
:1018E000D0F830331B6800EE103ADFED168A20EE98
:1018F000280A09F023F8B0EE408AD4F830331B6888
:1019000000EE103A20EE280A08F0D2FFD4EDB77AA4
:1019100067EE886A94EDB87A27EE006A76EEC66ABA
:10192000C4EDBA6A67EE807A27EE087A77EE877A96
:10193000C4EDBB7AD4F8E432C4F8F032BDEC028BCB
:1019400010BD00BF35FA8E3C10B52DED028B04465C
:10195000D0F830331B6800EE103ADFED168A20EE27
:10196000280A08F0EBFFB0EE408AD4F830331B6849
:1019700000EE103A20EE280A08F09AFFD4EDC07A63
:1019800067EE886A94EDC17A27EE006A76EEC66A41
:10199000C4EDBD6A67EE807A27EE087A77EE877A23
:1019A000C4EDBE7AD4F80833C4F8FC32BDEC028B27
:1019B00010BD00BF35FA8E3C00B58446174B03605E
:1019C000017180ED020A002380F8D83280F8D93204
:1019D0000023C0F8DC32C0F8E032C0F8E432C0F8CE
:1019E000E832C0F8EC32C0F8F032C0F8F432C0F897
:1019F000F832C0F8FC32C0F80033C0F80433C0F845
:101A00000833074B0360C0EDCE0A064B00F54F7E4E
:101A10000FCB8EE80F0060465DF804FB08C9000894
:101A200030C90008A8C8000830B583B01F4CFF2596
:101A300001951F4B00931F4B1F4A01212046FFF7C2
:101A4000E3FE01951D4B00931D4B1E4A022104F538
:101A50000A70FFF7D9FE01951B4B00931B4B1C4AE4
:101A6000032104F58A60FFF7CFFE0195194B00931F
:101A7000194B1A4A042104F5CF60FFF7C5FE184D33
:101A80002A461849002008F0A3FF174CDFED170A7B
:101A90009FED170A04212046FFF78EFF2A461549BD
:101AA000204608F095FF03B030BD00BF00000010D5
:101AB00050050020F8060020C80600208C030020F6
:101AC0003405002004050020C80100207003002018
:101AD0004003002004000020AC0100207C01002015
:101AE000000000205D160008E0070020CDCCCC3EB1
:101AF000E3A59B3D250D00082DE9F84F2DED048B46
:101B0000002407E04FF40A70494B00FB0430FFF754
:101B10003DFE0134032CF5D9464C2046FFF70CF965
:101B20004FF0B3094A46002104F10C0009F082FD90
:101B3000F2EE0E8AC4ED048AB3EE098A84ED058ABA
:101B40004FF07F5BC4F818B04FF0804666653A4F9F
:101B5000A765B7EE009A84ED1A9A384DE5664FF006
:101B6000730AA4F8ACA04A46002104F1BF0009F0B2
:101B700061FD18EE903AC4F8C33018EE103AC4F87C
:101B8000C730C4F8CBB0C4F80761C4F80B712C4B54
:101B9000C4F81731C4F81F514FF0000884F85FA152
:101BA00084F860814A46414604F5B97009F042FD67
:101BB00018EE903AC4F8763118EE103AC4F87A313B
:101BC000C4F87EB1C4F8BA61C4F8BE711C4BC4F845
:101BD000CA31C4F8D251A4F812A24A46414604F2CE
:101BE000252009F027FD19EE103AC4F82932C4F86F
:101BF0006D62144BC4F871324FF07C53C4F87532E7
:101C00000F4BC4F87D32C4F88552722384F8C53274
:101C100084F8C6822046FFF71FFE01210A4808F01B
:101C2000FFFD0A4B18600120BDEC048BBDE8F88F66
:101C300000000010E007002000008C429A99593FF4
:101C40009A99993F00002041B8C90008DC0700209C
:101C500030B589B00546002409E04FF40A7004FB52
:101C600000F02B58DB6901A9284498470134032C64
:101C7000F3DD019B0C4A934204D00C4A93420AD0F4
:101C800009B030BD00234FF0FF3201A908480068B9
:101C900004F0A0FFF4E700234FF0FF3201A905484C
:101CA000006804F097FFEBE7B00C0020880C0020E0
:101CB000400B00203C0B002038B5044690F8D83289
:101CC000012B15D0022B47D083B14148FFF7C0FF4D
:101CD000012038BD3E4A4FF40A7101FB0322002166
:101CE0009181013322799A42F4D8EEE70023F9E793
:101CF000374B03F6640503F23C6003F2144122689B
:101D0000126AD5ED001A90ED001AD1ED000A93ED9C
:101D10007B0A2046904723685B6920469847002548
:101D200016E02368DB6894EDC70AD4EDC80A94ED89
:101D3000C91A294620469847254A4FF40A7305FBDD
:101D400003F3D01880ED730AD3589B699847013587
:101D50002379AB42E5D8B8E7FFF7AAFD1C4B03F6A1
:101D6000640503F23C6003F214412268126AD5ED67
:101D7000001A90ED001AD1ED000A93ED7B0A20467F
:101D800090472046FFF7A8FD23685B6920469847E7
:101D90002046FFF7D9FD002516E02368DB6894EDA7
:101DA000C70AD4EDC80A94EDC91A294620469847B7
:101DB000074A4FF40A7305FB03F3D01880ED730A4A
:101DC000D3589B69984701352379AB42E5D87CE726
:101DD0000000001010B584B0FFF78EFE17E01F4A18
:101DE00011681F4BC3F8F4125168C3F8F8129268D7
:101DF000C3F8FC22194B1A7B194880F8D8225B7B68
:101E000080F8D932FFF758FF012004F027FA154B6C
:101E100019688B686846984702AB0098019903C31C
:101E2000B1F1FF3FF0D004460C4B00686168A26836
:101E300007C3A2891A800A4B93F8D832012BCED05F
:101E4000022BD7D1054A1168054BC3F8001351681E
:101E5000C3F804139268C3F80823CBE7CC0700202B
:101E6000E0070020DC07002008B5FFF7DDFD08BD16
:101E700010B50221084800F047FC044648B1002193
:101E8000204607F07FFC07F0DFFC022004F0E6F9B3
:101E9000F9E705F067FBF2E70000024008B5012012
:101EA00004F0DCF9FBE7000010B5A82000F046FBC9
:101EB00000F06CFC094C00231A461946204600F03D
:101EC00043FA00231A460C21204600F03DFA002375
:101ED0001A467021024800F037FA10BDB00C0020FD
:101EE000880C002070B5B6B02426324600212DA8FB
:101EF00009F0A0FB304B2D934FF400753295182458
:101F000033942DAA00212D4804F032F92C4B18608F
:101F10003246002124A809F08DFB2A4B24932995F1
:101F20002A9424AA0021284804F022F9274B18609B
:101F3000324600211BA809F07DFB254B1B93209501
:101F400021941BAA0021234804F012F9224B1860A7
:101F50003246002112A809F06DFB204B1293179511
:101F6000189412AA00211E4804F002F91D4B1860B3
:101F7000324600210DEB060009F05CFB1A4B099379
:101F80000E950F940DEB06020021184804F0F0F8AE
:101F9000174B186032460021684609F04BFB154B81
:101FA0000093059506946A460021134804F0E0F872
:101FB000124B186036B070BDC4C9000899210008E2
:101FC000800B0020D8C90008CD200008480B002055
:101FD000F0C9000815210008440B002008CA0008B9
:101FE0009D1E0008380B00201CCA0008D51D0008E3
:101FF0002C0B002030CA0008711E0008300B002096
:1020000008B572B6FFF750FF0849094800F058F9C3
:102010000849094800F054F900F010F8FFF76CFD8A
:10202000FFF760FF06F02EF962B608BD6D200008CC
:10203000B00C0020C9200008880C002008B5002240
:102040001C21102004F0A2FD064B186000221C2168
:10205000102004F09BFD044B186008F0C3FB012026
:1020600008BD00BF400B00203C0B002008B5C36832
:1020700073B901464368A3F20123032B08D8DFE8B4
:1020800003F002080E140C4803689B682831984737
:1020900008BD0A4803689B6828319847F8E7084854
:1020A00003689B6828319847F2E7064803689B68F5
:1020B00028319847ECE700BF00000010280200100C
:1020C00050040010780600107047000000B589B079
:1020D00005E001A800F0F5F9012004F0BFF80022A6
:1020E00001A90A4B186804F0CEFE0128F4D1084873
:1020F00001F0D2FC10F0FF0FF9D09DF80830002B52
:10210000E7D001A800F0C6F9E6E700BF400B0020C9
:10211000B00C002000B589B005E001A800F0D1F9AD
:10212000012004F09BF8002201A90A4B186804F072
:10213000AAFE0128F4D1084801F0AEFC10F0FF0F10
:10214000F9D09DF80830002BE7D001A800F0A2F9E3
:10215000E6E700BF3C0B0020880C0020A0B1026A1B
:10216000A2B110B590470B4B186888B105F05CFC24
:10217000012801D001200CE0064C206805F0F2F99E
:1021800000232360012004E00020704700207047F6
:10219000012010BD800B002000B58BB0404B06AC79
:1021A0000FCB84E80F00204600F064FB3D4B186025
:1021B00000282ED004AB3C4A92E8030083E80300D9
:1021C000184608F0B5F8044630B314222146354BC2
:1021D000186807F023F9354B186000B3334B1B68C0
:1021E0009868C3689847042004F0CCFA304B5860D4
:1021F000C0B10C2004F0C6FA2D4BD860B8B12D4800
:1022000008F0FAFA2A4C20602B4808F0F5FAA06092
:1022100040E005F0A7F9CDE705F0A4F9D5E705F012
:10222000A1F9DBE77B21254800F0E6FDE1E77D2110
:10223000224800F0E1FDE2E7C36998471B4D2B6897
:102240001A691B4C636892681A60636802930423DE
:1022500003932068866802AB93E80600B0472B68BA
:102260001A69E36812681A602B681969E26849689C
:1022700051601A69E36892689A60E36800930C23DE
:102280000193A06884686B4693E80600A04701208C
:1022900003F0E4FF054B18680028CDD1F7E700BF35
:1022A000B8C80008600B0020C8C800085C0B0020FC
:1022B0004C0B002054C9000864C9000844CA000837
:1022C00038B50D460446D8B1204601F001FBE0B90F
:1022D0000121204601F0C2FCD0B90221204601F0C4
:1022E000BDFCC0B91021204601F0B8FCB0B923688C
:1022F000104A934215D0104A934216D0012038BD9F
:1023000017210E4800F078FDDEE700F0FCFCDFE767
:1023100000F0F9FCE1E700F0F6FCE3E700F0F3FC85
:10232000E5E7074B1D600020E9E7064B1D60002034
:10233000E5E700BF006400400068004088CA00086C
:10234000EC0B0020E80B0020F0B58BB00C461546D6
:102350001E46074610B314F0020F24D0EB0400937E
:10236000630003F0060343EAC5050195F2040292F7
:1023700043EAC6030393E3080593C4F3800404947B
:10238000012308930022069207930E2309936946BE
:10239000384601F099F980B90BB0F0BD44210848E6
:1023A00000F02AFDD7E76D010095620002F00602F9
:1023B0000192760102960392DDE700F0A4FCEBE7C0
:1023C00088CA000838B50446124B984203D0124B15
:1023D0009C4211D038BD114A136801331360104D6F
:1023E0002B46A5F12402002101F070FB0D4B1B6868
:1023F000A5F128009847EAE7094D2B46A5F12402EC
:102400000021204601F062FB074B1B68A5F1280064
:102410009847DFE7B00C0020880C0020E40B002078
:10242000DC0B0020EC0B0020E80B002038B5044644
:10243000124B984203D0124B9C4211D038BD114A26
:10244000136801331360104D2B46A5F124020121BE
:1024500001F03CFB0D4B1B68A5F128009847EAE70B
:10246000094D2B46A5F124020121204601F02EFB47
:10247000074B1B68A5F128009847DFE7B00C002048
:10248000880C0020E40B0020AC0B0020EC0B00209B
:10249000E80B002000B587B00246C368019304230F
:1024A000029300230393017C04918DF814300346BA
:1024B00053F8080B1132694601F038FA07B05DF89D
:1024C00004FB00B589B0024600230193C168029164
:1024D00004930593017C06918DF81C3052F8110B82
:1024E00001AB02A901F022FA09B05DF804FB00007B
:1024F0000E4B1B78C3B982B00C4B01221A700C4BE7
:102500005B680193019A0B4B1B689A4203D20A4AFB
:10251000136801331360064B5A68064B1A60034B6D
:1025200000221A7002B07047704700BF080C0020EC
:10253000001000E0180C00201C0C002008B5124A06
:10254000D2F8FC3043F08073C2F8FC300F4B00210E
:1025500059601A6842F001021A600D4B03FB00F04B
:102560000C4B18600C4BA3FB00239B090B4A136018
:102570000B4BA3FB0030800C0A4B18600A4B196010
:10258000FFF7B6FF08BD00BF00ED00E0001000E05F
:1025900040420F00280C0020D34D6210240C002074
:1025A00083DE1B43200C00201C0C002008B52DED01
:1025B000028B0B4B5A680368D31A07EE903AF8EE79
:1025C000677A084B93ED007AB8EE477A87EE878AF0
:1025D0000260FFF78DFFB0EE480ABDEC028B08BD2C
:1025E000001000E0280C00202DE9F04182B0294BBA
:1025F0005B680193FFF77CFF274B1C68002665088A
:10260000E3071B1B65F10005DB186D411C1945F143
:102610000005019BE41845F10005204B1C605D603E
:102620001F4BD3F800804246334620462946FEF72A
:1026300029FA07461B4B186059604246334620462C
:102640002946FEF71FFA10461C461546164B1A601F
:102650005C60DFF86480C8F80070144B1F683A466D
:1026600033462146FEF70EFA80B2A8F8040000FBBC
:1026700007F7E81B64F100010D4B186059600D4B22
:102680001A683346FEF7FEF9A8F8060002B0BDE866
:10269000F08100BF001000E01C0C0020100C002096
:1026A000280C0020000C0020F80B0020240C002037
:1026B000F00B0020200C00202C0C002008B5FFF7A8
:1026C00093FF074A116893884FF47A7000FB03F375
:1026D000044800FB0133D0881844002108BD00BF26
:1026E0002C0C002040420F0008B502F087F90120B1
:1026F00008BD08B502F066F9012008BD08B502F072
:102700004DF9012008BD000038B505460C461820DB
:1027100008F08EFE0346A8B100220260426082608B
:10272000C2600261426105608480074A8260074A94
:10273000C260074A026107490A78501C08700649BE
:1027400041F82230184638BDFD260008F32600085F
:10275000E92600085C0C0020340C002008B500239A
:1027600000E00133074A12789A420AD9064A52F821
:10277000232091888142F4D151690029F1D010467B
:10278000884708BD5C0C0020340C002008B505F01B
:1027900051FF08BD10B310B582B004460023019369
:1027A000006803681A6801925B680193019B03F05B
:1027B000A5F9E1882368DB6B1B685B68C91A89B2DD
:1027C000084B1980E3685BB120469847E288A1680E
:1027D000206803F07FFC012002B010BD002070478C
:1027E0000020F9E75E0C002050B138B504460068BF
:1027F00040B10025456104F047F82560012038BD4F
:10280000002070470020FAE768B310B582B0024696
:1028100001900024154B1B78A34221D9144B53F887
:102820002430934202D00134E4B2F3E701A8FFF769
:10283000DBFF07E0621C0E4B53F8222043F82420F4
:102840000134E4B2094B1B785A1E9442F2DB08496A
:10285000002041F822001346044A1370012000E0D2
:10286000002002B010BD0020704700BF800C002087
:10287000600C002070B582B00446002840D0244B84
:10288000187807283ED80023984209D92168214AA0
:1028900052F823201268914236D00133DBB2F3E7BD
:1028A000182003F06FFF054600282ED00026066092
:1028B00046608660C66006614661E2883146A0686F
:1028C00008F0B8FE94E80F0085E80F00124B6B612A
:1028D000019603681A6801925A680192019ADA68AF
:1028E00042F01002DA60EA88A968286803F0F2FB77
:1028F000074A1378591C1170064A42F8235004E025
:10290000054602E0002500E00025284602B070BD23
:10291000800C0020600C00200928000860B108B578
:1029200002681268126812F0100F01D1002008BD71
:10293000FFF730FF0120FAE70020704708B50D4887
:102940000D4B03600323436000238360C3604FF497
:10295000002202614FF4401242610376437683768F
:10296000C3760377437700F039FD00B908BD00F066
:10297000CAF9FBE7B00C00200064004008B50D4820
:102980000D4B03600323436000238360C3604FF457
:10299000002202614FF4401242610376437683764F
:1029A000C3760377437700F019FD00B908BD00F046
:1029B000AAF9FBE7880C00200068004010B58AB037
:1029C0000023059306930793089309930368474AE6
:1029D000934204D0464A93423ED00AB010BD454AC5
:1029E000136801331360012B29D000240194424B5A
:1029F0001A6B42F001021A631B6B03F0010301938F
:102A0000019B4FF4C05305930223069303230893BD
:102A10000923099305A9394801F066FE22460521DC
:102A2000142001F0D3FA142001F0F4FA2246052113
:102A3000152001F0CBFA152001F0ECFACDE70023C8
:102A400000932D4B1A6C42F000721A641B6C03F059
:102A500000730093009BC8E700230293264B1A6C77
:102A600042F080621A641B6C03F080630293029B45
:102A7000204A136801331360012B29D000240494E9
:102A80001D4B1A6B42F002021A631B6B03F0020328
:102A90000493049B4FF440530593022306930323AE
:102AA00008930923099305A9154801F01DFE224644
:102AB0000521402001F08AFA402001F0ABFA2246BD
:102AC0000521412001F082FA412001F0A3FA84E7B8
:102AD00000230393084B1A6C42F000721A641B6CBB
:102AE00003F000730393039BC8E700BF006400403A
:102AF00000680040840C00200038024000000240C2
:102B00000004024010B582B0002400941E4B1A6BE2
:102B100042F480021A631A6B02F480020092009A57
:102B200001941A6B42F400121A631B6B03F4001336
:102B30000193019B224605210D2001F047FA0D204B
:102B400001F068FA22460521102001F03FFA10201A
:102B500001F060FA22460521112001F037FA112018
:102B600001F058FA224605213A2001F02FFA3A20C6
:102B700001F050FA22460521462001F027FA4620AE
:102B800001F048FA02B010BD0038024008B5024B0F
:102B9000186803F04BFBFAE7D80C002008B5044A8C
:102BA0000021044803F0E4FA034B186008BD00BF9D
:102BB0002CCF00088D2B0008D80C00202DE9F04107
:102BC0008CB000240794089409940A940B94009400
:102BD000444B1A6B42F020021A631A6B02F0200277
:102BE0000092009A01941A6B42F080021A631A6BE9
:102BF00002F080020192019A02941A6B42F00102E3
:102C00001A631A6B02F001020292029A03941A6B81
:102C100042F010021A631A6B02F010020392039A38
:102C200004941A6B42F002021A631A6B02F0020259
:102C30000492049A05941A6B42F004021A631A6B08
:102C400002F004020592059A06941A6B42F00802FB
:102C50001A631B6B03F008030693069BDFF8908052
:102C600001224FF48071404601F0ACFE1E4E01225D
:102C70004FF48051304601F0A5FE4FF48073079366
:102C800001250895099403270A9707A9404601F0F2
:102C90002BFD022307934FF488130893099407A987
:102CA000124801F021FD4FF4006307930894099541
:102CB00007A9304601F018FD4FF48053079308959B
:102CC00009950A9707A9304601F00EFD2246052115
:102CD000072001F07BF9072001F09CF90CB0BDE85A
:102CE000F08100BF003802400010024000000240A6
:102CF0000014024008B50368B3F1804F00D008BD4E
:102D000000F05AFBFBE772B6FEE7000000B595B095
:102D10003022002108A808F08DFC002303930493BF
:102D20000593069307930193204A116C41F080515B
:102D30001164126C02F080520192019A02931C4BB2
:102D40001A6842F480421A601B6803F480430293BD
:102D5000029B012308934FF48033099302220E92C1
:102D60004FF480030F9304231093A8211191129222
:102D7000139308A801F066FE98B90F23039302236A
:102D80000493002305934FF4A05306934FF480530C
:102D90000793052103A802F041F920B915B05DF8A9
:102DA00004FBFFF7B0FFFFF7AEFF00BF00380240A3
:102DB0000070004008B500F0E5FAFFF7A7FFFFF745
:102DC000FDFEFFF79FFEFFF7B9FDFFF7D7FD00F00F
:102DD00061F900F045F900F077F9FFF711F90549BD
:102DE000002005F09DFB03F095F9FFF7D7FE03F0F7
:102DF000A3F9FEE7D0CA0008FEE7000000B583B0E3
:102E0000002200920D4B596C41F480415964596C79
:102E100001F48041009100990192196C41F08051B8
:102E200019641B6C03F080530193019B0F216FF019
:102E3000010001F0CBF803B05DF804FB003802405C
:102E400030B589B0044600230193224B1A6C42F03E
:102E500001021A641B6C03F001030193019B02A998
:102E600003A802F013FA069BD3B902F0EFF9034668
:102E7000194AA2FB03239B0C013B18484FF08042E8
:102E8000026040F2E732C260436000230361836066
:102E9000836102F0BFFB054630B1284609B030BD62
:102EA00002F0D4F94300E3E70C4802F00FFA0546BC
:102EB0000028F2D11C2001F0ADF80F2C01D901251A
:102EC000EBE7002221461C2001F080F8044B1C6037
:102ED000E3E700BF0038024083DE1B43DC0C002028
:102EE0001C070020FEE7FEE7FEE7FEE7FEE770476F
:102EF00008B5022001F098FD08BD000008B50248A1
:102F000001F004FB08BD00BFA80E002008B5024870
:102F100001F0FCFA08BD00BF880D002008B502488A
:102F200001F0F4FA08BD00BF280D002008B50248E2
:102F300000F0C3FE08BD00BFB00C002008B5024879
:102F400000F0BBFE08BD00BFB00C002008B5024871
:102F500002F044FA08BD00BFDC0C002008B50448AC
:102F600002F0C8FE034B1868FFF7D8FC08BD00BF8D
:102F7000500F0020340B002008B5024802F0BAFEC2
:102F800008BD00BF080F002008B5044802F0B2FEDB
:102F9000034B1868FFF7C2FC08BD00BF980F002064
:102FA000600B002008B5024801F0B0FA08BD00BF70
:102FB000E80D002008B5024800F07FFE08BD00BF04
:102FC000880C002008B5024800F077FE08BD00BF5D
:102FD000880C002008B5024801F098FA08BD00BF2F
:102FE000480E00200120704708B508F00DFB16239D
:102FF00003604FF0FF3008BD08B54FF0FF31FFF719
:10300000F3FFFEE710B503460C4A0D490D48006872
:1030100040B10C4800680344521A934206D8094A4A
:10302000136010BD0748084C0460F2E708F0ECFAA2
:103030000C2303604FF0FF30F3E700BF00000220D5
:1030400000040000240D0020482B0120034AD2F880
:10305000883043F47003C2F88830704700ED00E018
:1030600008B50A480A4B03604FF4E133436000237C
:103070008360C36003610C2242618361C36102F01B
:10308000A7FC00B908BDFFF73EFEFBE7980F002044
:10309000004C004008B50A480A4B03604FF4E13386
:1030A000436000238360C36003610C22426183613B
:1030B000C36102F08DFC00B908BDFFF724FEFBE7F9
:1030C000500F00200010014008B50A480A4B036069
:1030D0004FF4E133436000238360C36003610C223B
:1030E00042618361C36102F073FC00B908BDFFF760
:1030F0000AFEFBE7080F00200044004030B58DB009
:10310000044600230793089309930A930B930368DB
:103110008B4A934208D08B4A93424AD08A4A9342C0
:1031200000F0AB800DB030BD00250195874B1A6CC7
:1031300042F400221A641A6C02F400220192019AED
:1031400002951A6B42F004021A631B6B03F004032E
:103150000293029B4FF440630793022308930323D7
:103160000A9308230B9307A9794801F0BDFA79481F
:10317000794B03604FF0006343608560C5604FF496
:103180008063036145618561C5610562456200F048
:10319000CBFF58B96F4BE3639C63002205213420B9
:1031A00000F014FF342000F035FFBBE7FFF7ABFD64
:1031B000F0E700250395654B5A6C42F010025A6403
:1031C0005A6C02F010020392039A04951A6B42F0B3
:1031D00001021A631B6B03F001030493049B4FF479
:1031E000C06307930223089303230A9307230B93D7
:1031F00007A95A4801F078FA59485A4B03604FF032
:103200000063436040238360C5604FF480630361C3
:1032100045618561C5614FF480330362456200F00A
:1032200083FF20BB4E4BA3639C634F484F4B03600F
:103230004FF00063436000238360C3604FF48062FB
:10324000026143618361C3614FF480320262436271
:1032500000F06AFF70B9444BE3639C6300220521D0
:10326000252000F0B3FE252000F0D4FE5AE7FFF73A
:103270004AFDD7E7FFF747FDEDE700250595334BFE
:103280001A6C42F400321A641A6C02F4003205928D
:10329000059A06951A6B42F008021A631B6B03F03D
:1032A00008030693069B60230793022308930323D6
:1032B0000A9307230B9307A92D4801F015FA2D480F
:1032C0002D4B03604FF0006343608560C5604FF491
:1032D00080630361456185614FF48073C36105625A
:1032E000456200F021FF28BB224BE3639C63234827
:1032F000234B03604FF0006343604023836000234F
:10330000C3604FF480620261436183614FF4807255
:10331000C2610362436200F007FF70B9174BA363F9
:103320009C6300220521262000F050FE262000F09C
:1033300071FEF7E6FFF7E7FCD6E7FFF7E4FCEDE701
:10334000004C0040001001400044004000380240A2
:1033500000080240A80E0020406002400000024029
:10336000480E0020B8640240E80D0020406402408E
:10337000000C0240880D002088600240280D0020CB
:10338000A060024008B50B4B1A6842F400721A6044
:103390001A6842F480621A601A6842F480721A60F5
:1033A000032000F0F5FD0F20FFF74AFDFFF726FD93
:1033B000002008BD003C0240034A1168034B1B7803
:1033C0000B441360704700BFE00F00201807002077
:1033D000014B1868704700BFE00F0020002800F084
:1033E000718138B504460368824A934208D002F5D9
:1033F0008062934204D04FF48F717F48FFF7FCFC4A
:10340000237E012B00F29680637E012B00F29880D0
:10341000A37E012B00F29A80E37E012B00F29C80B8
:10342000237F012B00F29E80637F012B00F2A0809E
:10343000A3684BB1B3F1804F06D0B3F1004F03D076
:10344000B3F1404F40F09A80E3684BB1B3F1807F15
:1034500006D0B3F1007F03D0B3F1407F40F09480F9
:10346000236963B3B3F5803F29D0B3F5003F26D07D
:10347000B3F5403F23D0B3F5802F20D0B3F5A02F74
:103480001DD0B3F5C02F1AD0B3F5E02F17D0B3F588
:10349000002F14D0B3F5102F11D0B3F5202F0ED07C
:1034A000B3F5302F0BD0B3F5402F08D0B3F5502F24
:1034B00005D0B3F5602F02D0B3F5702F6AD16369E0
:1034C000A3B1B3F5801F11D0B3F5001F0ED0B3F533
:1034D000401F0BD0B3F5800F08D0B3F5A00F05D077
:1034E000B3F5C00F02D0B3F5E00F59D16368013BCB
:1034F000B3F5806F5AD294F82030002B5CD022684C
:10350000136843F001031360FFF762FF0546236869
:103510005A6812F0010F53D1FFF75AFF401B0A28D7
:10352000F5D9636A43F400336362052384F82030DD
:10353000012038BD40F21F112F48FFF75DFC63E703
:103540004FF490712C48FFF757FC61E740F22111CE
:103550002948FFF751FC5FE74FF491712648FFF7C8
:103560004BFC5DE740F223112348FFF745FC5BE786
:103570004FF492712048FFF73FFC59E740F22511C4
:103580001D48FFF739FC5FE74FF493711A48FFF7C6
:1035900033FC65E740F227111748FFF72DFC8EE753
:1035A0004FF494711448FFF727FC9FE740F229116C
:1035B0001148FFF721FC9EE72046FFF7FFF99EE741
:1035C0001A6822F002021A60FFF702FF054623681C
:1035D0005A6812F0020F11D0FFF7FAFE401B0A28BA
:1035E000F5D9636A43F400336362052384F820301D
:1035F00001209EE700640040D8CA0008227E012A0C
:103600003DD01A6822F080021A60637E012B3BD005
:103610002268136823F040031360A37E012B39D086
:103620002268136823F020031360E37E012B37D058
:103630002268136843F010031360237F012B35D0F9
:103640002268136823F008031360637F012B33D0D3
:103650002268136823F004031360A368E26813432D
:1036600022691343626913436268013A2168134374
:10367000CB6100206062012384F8203059E71A688A
:1036800042F080021A60C0E72268136843F04003EA
:103690001360C2E72268136843F020031360C4E795
:1036A0002268136823F010031360C6E722681368CA
:1036B00043F008031360C8E72268136843F004036B
:1036C0001360CAE70120704790F82030013BDBB25D
:1036D000012B05D9436A43F48023436201207047DC
:1036E00070B50C460B68B3F5803F80F0838063684B
:1036F000B3F5803F80F08480A368B3F5803F80F00D
:103700008580E368B3F5803F80F08680A369012B54
:1037100000F28880E369012B00F28A802369012B83
:1037200000F28C80236A012B00F28E8063691B2BD0
:1037300000F29080636A1B2B00F29280624BD3F8F8
:10374000002242F00102C3F80022D3F8002222F442
:103750007C52C3F80022D3F80022616A42EA0122B7
:10376000C3F80022626902F01F02012101FA02F28D
:10377000D3F81C12D04321EA0201C3F81C12E369FA
:10378000BBB9514BD3F80C120140C3F80C12A588F9
:103790006169E66845EA0645483143F83150A56855
:1037A000218841EA0541656905F1480C03EBCC032A
:1037B0005960E369012B59D0A369002B6ED14249AE
:1037C000D1F804320340C1F804322369002B6CD1D4
:1037D0003D4BD3F814120840C3F81402236A012B9E
:1037E0006AD0394AD2F8003223F00103C2F800321D
:1037F000002070BD40F252313448FFF7FDFA76E701
:1038000040F253313148FFF7F7FA75E74FF455713D
:103810002E48FFF7F1FA74E740F255312B48FFF7D5
:10382000EBFA73E740F256312848FFF7E5FA71E703
:1038300040F257312548FFF7DFFA6FE74FF4567132
:103840002248FFF7D9FA6DE740F259311F48FFF7D8
:10385000D3FA6BE74FF45D711C48FFF7CDFA69E7C7
:1038600040F275311948FFF7C7FA67E7164BD3F8EE
:103870000C121143C3F80C12A5886169266845EA49
:103880000645483143F83150A1896569A66841EA87
:103890000641483503EBC50359608DE70A49D1F865
:1038A00004321343C1F804328FE70749D1F81432C8
:1038B0001343C1F8143291E70349D1F81C32134382
:1038C000C1F81C328DE700BF00640040D8CA000870
:1038D00070B5044690F82050EDB2012D06D0436A31
:1038E00043F4002343620125284670BD022380F87B
:1038F00020300268136823F001031360FFF768FDAE
:10390000064623685B6813F0010F0CD0FFF760FDDB
:10391000831B0A2BF5D9636A43F4003363620523E2
:1039200084F82030E0E700256562DDE72DE9F84303
:1039300006460C461746984690F82050EDB20368AC
:10394000D3F808908B680BB1042B5BD1E3680BB103
:10395000022B5DD12369082B60D8A368002B69D1A5
:103960002368B3F5006F5FD2237D012B6CD8013D36
:10397000EDB2012D00F2878019F0E05F7DD0C9F330
:10398000016101238B40C8F80030A368002B61D18E
:103990002068E368326843EA405001F118031B01D4
:1039A000D0503368226901F1180003EB00135A600C
:1039B000237D012B59D0FA79BB791B0443EA0263BA
:1039C0007A7943EA022338793268034302EB011221
:1039D000C2F88C31FA78BB781B0443EA02637A7828
:1039E00043EA022338783268034302EB0112C2F83B
:1039F0008831326818310901535843F0010353509C
:103A0000002045E040F2EA412248FFF7F5F99DE742
:103A100040F2EB411F48FFF7EFF99BE740F2EC4122
:103A20001C48FFF7E9F998E740F2EF411948FFF722
:103A3000E3F999E76368B3F1005F95D340F2F3418E
:103A40001448FFF7D9F98FE740F2F5411148FFF725
:103A5000D3F98CE7626843EAC203E2683068134333
:103A600001F11802120183509BE7336803EB001346
:103A70005A6842F480725A609DE7736A43F40013F7
:103A80007362012004E0736A43F4802373620120AF
:103A9000BDE8F883D8CA000890F82030013BDBB2BB
:103AA000012B01D9002070470368986810F08060EE
:103AB00000D001209A6812F0006F00D001309B689E
:103AC00013F0805FEFD00130704700002DE9F04126
:103AD00004460D4690461F4690F82060F6B2012934
:103AE00010D8013EF6B2012E00F2AE8085B92368EF
:103AF000DB6813F0030F16D1636A43F400136362AB
:103B00000120A6E040F2E9515348FFF775F9E8E7D4
:103B100023681B6913F0030F05D1636A43F4001394
:103B20006362012095E0226805F11B031B01D35855
:103B300003F00403C8F80830002B6CD1226805F1AB
:103B40001B031B01D3585B0DC8F80030226805F138
:103B50001B031B01D25802F00202C8F80C20226895
:103B600013445B6813F0080F5ED00823C8F81030C8
:103B7000236805F11B0203EB02135B68C3F3072301
:103B8000C8F81830236803EB02135B681B0CC8F8F5
:103B90001430236803EB0513D3F8B8313B70236866
:103BA00003EB0513D3F8B831C3F307237B70236805
:103BB00003EB0513D3F8B831C3F30743BB70236895
:103BC00003EB0513D3F8B8311B0EFB70236803EB2E
:103BD0000513D3F8BC313B71236803EB0513D3F80D
:103BE000BC31C3F307237B71236803EB0513D3F8C0
:103BF000BC31C3F30743BB71236803EB0513D3F850
:103C0000BC311B0EFB71CDB92268D36843F0200391
:103C1000D36000201DE0226805F11B031B01D3586F
:103C2000DB08C8F8043091E705F11B0302EB03122F
:103C3000536803F00F03C8F8103099E7226813693E
:103C400043F020031361E4E7636A43F48023636273
:103C50000120BDE8F08100BFD8CA000870B5054654
:103C60000E4690F82040E4B20C4B994209D8013C32
:103C7000E4B2012C0BD96B6A43F480236B62012000
:103C800070BD40F282610648FFF7B6F8EFE72A6898
:103C90005369334353610020F2E700BF7F8F030075
:103CA000D8CA000870477047704770477047704720
:103CB000704770477047704770472DE9F84F0546C9
:103CC00003685C69D3F804809F68D3F80CA0D3F82C
:103CD0001090D3F818B014F001063BD017F001068D
:103CE00016D001229A6017F0020F08D117F0040FC6
:103CF0000CD117F0080606D04FF4805608E0FFF705
:103D0000D1FF002604E0FFF7D0FF01E04FF400668A
:103D100017F4807F0DD02B684FF480729A6017F4EF
:103D2000007F40F0968017F4806F00F0968046F494
:103D3000005617F4803F0DD02B684FF480329A6004
:103D400017F4003F40F0938017F4802F00F0938029
:103D500046F4004614F0080F07D01AF0100F04D0F4
:103D600046F400762B681022DA6014F0040F03D0BA
:103D70001AF0080F40F0898014F0020F05D02B686C
:103D8000DB6813F0030F40F0878014F0400F07D07A
:103D900019F0100F04D046F480662B6810221A61C7
:103DA00014F0200F02D019F0080F79D114F0100F81
:103DB00004D02B681B6913F0030F78D114F4003F73
:103DC00002D018F0100F76D114F4803F02D018F012
:103DD000080F77D114F4004F37D018F0040F31D00A
:103DE00014F4807F04D01BF0010F01D046F00106CF
:103DF00014F4007F04D01BF0020F01D046F002063D
:103E000014F4806F04D01BF0040F01D046F00406B8
:103E100014F4006F16D01BF0700B13D0BBF1400FE1
:103E200066D056D8BBF1200F5CD0BBF1300F5CD010
:103E3000BBF1100F01D146F008062A68936923F000
:103E4000700393612B6804225A60002E56D1BDE89E
:103E5000F88F2846FFF727FF6BE717F4006F02D0B3
:103E600046F4804665E72846FFF720FF61E72846CD
:103E7000FFF71AFF6EE717F4002F02D046F48036E2
:103E800068E72846FFF713FF64E72B680822DA602B
:103E90002846FFF70DFF6FE72846FEF793FA74E711
:103EA0002B6808221A612846FFF703FF7EE72846A1
:103EB000FEF7BCFA82E72B6810225A602846FFF70B
:103EC000F9FE81E72B6808225A602846FFF7F3FEC7
:103ED00080E7BBF1500F0ED0BBF1600FADD146F4BF
:103EE0008076AAE746F01006A7E746F02006A4E78A
:103EF00046F04006A1E746F080069EE76B6A334332
:103F00006B622846FFF7D8FEA1E70000002807DB18
:103F100000F01F02400901239340024A42F820307A
:103F2000704700BF00E100E0002808DB0901C9B2CA
:103F300000F1604000F5614080F80013704700F028
:103F40000F000901C9B2014B1954704714ED00E08C
:103F500000B500F00700C0F1070CBCF1040F28BF4A
:103F60004FF0040C031D062B0FD9C31E4FF0FF3E6C
:103F70000EFA0CF021EA000199400EFA03FE22EA43
:103F80000E0241EA02005DF804FB0023EEE70000A8
:103F900010B50446C31E042B0FD80A4AD36823F475
:103FA000E0631B041B0C240204F4E064234343F08D
:103FB000BF6343F40033D36010BD90210248FEF785
:103FC0001BFFEAE700ED00E038CB000870B50646BD
:103FD0000C4615460F2A0ED80F2C11D80B4BD8685B
:103FE0002A462146C0F30220FFF7B2FF01463046C1
:103FF000FFF79AFF70BDA8210548FEF7FDFEEBE72D
:10400000A9210348FEF7F8FEE8E700BF00ED00E055
:1040100038CB000810B5041E03DB2046FFF776FFFF
:1040200010BDBC210148FEF7E7FEF6E738CB0008DB
:1040300030B405682C6824F480242C600468636024
:104040008368402B05D0036899600368DA6030BC50
:10405000704703689A600368D960F8E710B4036892
:10406000D9B210390A4AA2FB01421209094CA25CDA
:10407000C2655F2907D96FF3090304338365806D37
:104080005DF8044B70476FF309038365F7E700BFE2
:10409000ABAAAAAA68CF0008836A826992B9012BE9
:1040A0000AD0022B02D00BB100207047C36A13F074
:1040B000807F28D100207047C36AB3F1C07F24D02D
:1040C00000207047B2F5005F09D0022B25D9032BE1
:1040D00025D1C36A13F0807F23D100207047032BC2
:1040E00003D8DFE803F01404140A00207047C36A01
:1040F00013F0807F0DD100207047C36AB3F1C07FF9
:1041000009D000207047012070470120704701202E
:104110007047012070470120704701207047002040
:10412000704701207047000070B50446FFF750F952
:10413000002C00F03E8105462368954A934231D019
:10414000183293422ED0183293422BD01832934219
:1041500028D01832934225D01832934222D01832F8
:1041600093421FD0183293421CD002F556729342EC
:1041700018D01832934215D01832934212D0183208
:1041800093420FD0183293420CD01832934209D088
:104190001832934206D01832934203D0B7217D489B
:1041A000FEF72AFE6368A3B1B3F1007F11D0B3F12B
:1041B000806F0ED0B3F1C06F0BD0B3F1006F08D099
:1041C000B3F1206F05D0B3F1406F02D0B3F1606F4F
:1041D0006DD1A3681BB1402B01D0802B6CD1E3685B
:1041E000B3F5007F01D0002B6BD12369B3F5806F4D
:1041F00001D0002B6AD163692BB1B3F5006F02D0F7
:10420000B3F5805F67D1A3692BB1B3F5005F02D02E
:10421000B3F5804F64D1E36923B1B3F5807F01D05A
:10422000202B62D1236A43B1B3F5803F05D0B3F5AB
:10423000003F02D0B3F5403F5CD1636A0BB1042B61
:104240005DD1636AC3B1A36A032B5DD8E36A43B14E
:10425000B3F5000F05D0B3F1807F02D0B3F1C07F7A
:1042600057D1236B43B1B3F5001F05D0B3F5800FD1
:1042700002D0B3F5C00F51D1022384F835300023AA
:1042800084F834302268136823F001031360236834
:104290001A6812F0010F46D0FFF79AF8401B052864
:1042A000F5D920236365032084F8350070BDB8215B
:1042B0003848FEF7A1FD8CE7B9213648FEF79CFD92
:1042C0008DE7BA213348FEF797FD8EE7BB213148D1
:1042D000FEF792FD8FE7BC212E48FEF78DFD92E799
:1042E000BD212C48FEF788FD95E7BE212948FEF741
:1042F00083FD97E7BF212748FEF77EFD9DE7C0219C
:104300002448FEF779FD9CE7C5212248FEF774FD9D
:104310009CE7C6211F48FEF76FFDA2E7C7211D4895
:10432000FEF76AFDA8E71A681B4911406268A06899
:104330000243E06802432069024360690243A069C6
:104340000243E0690243206A02430A43616A042986
:1043500024D01A602668756925F00705636A1D4335
:10436000042B07D1A36A1D43E36A1BB12046FFF764
:1043700093FEC0B975612046FFF770FEE26D3F23E2
:104380009340836000206065012384F835308DE719
:10439000106002409CCB00083F8010F0E16A206B67
:1043A00001430A43D5E740236365012084F83500C3
:1043B0007CE701207AE700BF2DE9F04104460E4674
:1043C00017461D46D0F858805A1E4FF6FE739A4283
:1043D00011D894F83430012B36D0012384F83430CE
:1043E00094F83530DBB2012B0BD0002384F8343045
:1043F0000220BDE8F08140F2CB111448FEF7FCFC2E
:10440000E7E7022384F83530002363652B463A46FC
:1044100031462046FFF70CFEE26D3F239340C8F87B
:1044200008302268136843F016031360236C23B12D
:104430002268136843F0080313602268136843F08E
:10444000010313600020D4E70220D2E79CCB0008D0
:1044500070B50446866DFEF7BBFF94F83530DBB2CD
:10446000022B06D080236365002384F834300120BA
:1044700070BD05462268136823F016031360226896
:10448000536923F080035361236CE3B122681368FE
:1044900023F0080313602268136823F001031360FC
:1044A00023681B6813F0010F11D0FEF791FF431B27
:1044B000052BF5D920236365032084F835000023FC
:1044C00084F83430D4E7A36C002BDFD1E3E7E26D4E
:1044D0003F239340B360012384F83530002084F8F3
:1044E0003400C5E790F83530DBB2022B03D08023CF
:1044F000436501207047052380F835300268136852
:1045000023F001031360002070470000F0B583B072
:10451000044600230193724B1D68724BA3FB0535C3
:10452000AD0A876D3E68C26D08239340334210D0B8
:1045300003681A6812F0040F0BD01A6822F0040204
:104540001A60C26D08239340BB60436D43F00103C2
:104550004365E26D01239340334209D022685269DA
:1045600012F0800F04D0BB60636D43F002036365FB
:10457000E26D04239340334209D02268126812F09E
:10458000020F04D0BB60636D43F004036365E26D0A
:1045900010239340334224D02268126812F0080F8F
:1045A0001FD0BB6023681A6812F4802F0DD01B68DF
:1045B00013F4002F04D1236C9BB12046984710E0E0
:1045C000A36C73B1204698470BE01A6812F4807F01
:1045D00003D11A6822F008021A60236C0BB120463E
:1045E0009847E26D20239340334255D022681268E9
:1045F00012F0100F50D0BB6094F83530DBB2052BB1
:104600000ED023681A6812F4802F33D01B6813F47D
:10461000002F2AD1636C002B3ED0204698473BE008
:104620002268136823F0160313602268536923F08D
:1046300080035361236CA3B12268136823F008033D
:104640001360E26D3F239340BB60012384F8353053
:10465000002384F83430236D002B3FD02046984748
:104660003CE0A36C002BE7D1EBE7E36BA3B1204662
:10467000984711E01A6812F4807F09D11A6822F075
:1046800010021A60012384F83530002384F8343096
:10469000E36B0BB120469847636DFBB1636D13F07C
:1046A000010F17D0052384F835302268136823F0F2
:1046B00001031360019B01330193AB4204D82368CB
:1046C0001B6813F0010FF5D1012384F83530002366
:1046D00084F83430E36C0BB12046984703B0F0BD4A
:1046E00014070020B5814E1B2DE9F04182B007462A
:1046F0000E46A54B984223D003F5806398421FD005
:1047000003F5806398421BD003F58063984217D06D
:1047100003F58063984213D003F5806398420FD06D
:1047200003F5806398420BD003F58063984207D06D
:1047300003F58063984203D0AC219448FEF75CFBFC
:1047400033689AB212B1B3F5803F03D3AD218F48DD
:10475000FEF752FB7368B3F5041F1BD00DD8B3F5F9
:10476000881F17D005D8032B14D9113B012B11D961
:104770000CE0B3F5901F0DD008E0B3F5441F09D04D
:10478000B3F5481F06D0B3F5081F03D0AE217F480C
:10479000FEF732FB002475E0F368032B13D8BA68E8
:1047A000610003238B4022EA0302F3688B4013432A
:1047B000BB607A6822EA05027368C3F30013A34062
:1047C00013437B606FE0C0217048FEF715FBE6E7FE
:1047D000D1216E48FEF710FB6DE0336913B10D2B4C
:1047E00011D893B1E208083257F8220004F007010B
:1047F00089000F238B4020EA030033698B40034379
:1048000047F8223066E00F2BECD0DE215F48FEF740
:10481000F3FAE7E7072300E000238B40034302326B
:104820005B4941F822305B4B9A686FEA080322EA41
:104830000801706810F4801F01D048EA0201554A4F
:104840009160D26803EA0201706810F4001F01D081
:1048500048EA02014F4AD160526803EA02017068D7
:1048600010F4003F01D048EA02014A4A5160126840
:104870001340716811F4803F01D048EA0203454AB1
:10488000136001340F2C7CD80125A540336803EA5E
:10489000050835EA0303F4D1736803F00303013B11
:1048A000012B7FF679AF736803F00303032B0CD061
:1048B000B368022B8CD8FA68610003238B4022EA8C
:1048C0000302B3688B401343FB60736803F0030378
:1048D000022B82D03A68610003238B4022EA030254
:1048E000736803F003038B4013433B60736813F456
:1048F000403FC6D000230193274B5A6C42F48042BC
:104900005A645B6C03F480430193019BA208911CE1
:104910001F4B53F8210004F0030189000F238B4043
:1049200020EA0300184B9F423FF476AF03F5806303
:104930009F421AD003F580639F4218D003F580632D
:104940009F4216D003F580639F4214D003F5806325
:104950009F4212D003F580639F4210D003F580631D
:104960009F423FF457AF082357E7012355E702233F
:1049700053E7032351E704234FE705234DE70623BD
:104980004BE702B0BDE8F08100000240FCCB00081C
:1049900000380140003C01400038024038B5044670
:1049A0000D4621B123691D4207D0012038BD4FF4C7
:1049B000BE710348FEF720FAF4E70020F6E700BFD7
:1049C000FCCB000870B5054614460E4621B1012CFB
:1049D00008D86CB1AE6170BD40F29D110648FEF77B
:1049E0000BFAF4E74FF4CF710348FEF705FAF0E74E
:1049F0003604AE61EFE700BFFCCB000838B50546D2
:104A00000C4641B16B6904EA030224EA030444EA58
:104A10000244AC6138BD4FF4DB710248FEF7ECF99B
:104A2000F0E700BFFCCB000808B5054B5B6903420B
:104A300000D108BD024B5861FDF790FEF9E700BFB9
:104A4000003C0140002800F05E8270B582B0044650
:104A500003680F2B39D8236813F0010F4DD063681A
:104A60002BB1B3F5803F02D0B3F5A02F32D1804BEC
:104A70009B6803F00C03042B36D07D4B9B6803F03E
:104A80000C03082B2BD06368B3F5803F5FD0B3F5E0
:104A9000A02F62D0764B1A6822F480321A601A680E
:104AA00022F480221A606368002B60D0FEF790FC2D
:104AB00005466F4B1B6813F4003F1ED1FEF788FCC0
:104AC000401B6428F5D9032024E2E6216948FEF75B
:104AD00093F9C0E7EB216748FEF78EF9C7E7644B0F
:104AE0005B6813F4800FCED0614B1B6813F4003F5A
:104AF00003D06368002B00F00882236813F0020FD4
:104B000066D0E368012B41D823691F2B44D8584B4A
:104B10009B6813F00C0F4AD0554B9B6803F00C03B5
:104B2000082B3FD0E368002B77D0534B01221A604B
:104B3000FEF74EFC05464E4B1B6813F0020F63D187
:104B4000FEF746FC401B0228F5D90320E2E1484A63
:104B5000136843F480331360A5E7454B1A6842F4A9
:104B600080221A601A6842F480321A609BE7FEF7CE
:104B70002FFC05463E4B1B6813F4003FBDD0FEF7EB
:104B800027FC401B6428F5D90320C3E140F21D1126
:104B90003848FEF731F9B7E74FF48F713548FEF723
:104BA0002BF9B4E7324B5B6813F4800FBAD1304B6A
:104BB0001B6813F0020F03D0E368012B40F0A781BC
:104BC0002B4A136823F0F803216943EAC1031360F9
:104BD000236813F0080F51D06369012B2FD8636944
:104BE0009BB3254B0122C3F8802EFEF7F1FB05464F
:104BF0001F4B5B6F13F0020F40D1FEF7E9FB401B28
:104C00000228F5D9032085E1194A136823F0F80337
:104C1000216943EAC1031360DAE7174B00221A60E7
:104C2000FEF7D6FB0546124B1B6813F0020FCFD0E0
:104C3000FEF7CEFB401B0228F5D903206AE14FF4B2
:104C4000AF710C48FEF7D8F8C9E70B4B0022C3F848
:104C5000802EFEF7BDFB0546054B5B6F13F0020F80
:104C60000CD0FEF7B5FB401B0228F5D9032051E11B
:104C7000003802405CCC000800004742236813F073
:104C8000040F7CD0A368012B01D9052B38D1A54B8B
:104C90001B6C13F0805F39D100230193A14B1A6C78
:104CA00042F080521A641B6C03F080530193019B05
:104CB00001259D4B1B6813F4807F29D0A368012B2D
:104CC0003AD0052B3ED0974B1A6F22F001021A679B
:104CD0001A6F22F004021A67A368002B3CD0FEF77B
:104CE00077FB06468F4B1B6F13F0020F45D1FEF783
:104CF0006FFB801B41F288339842F3D9032009E10E
:104D00004FF4C5718948FEF777F8C0E70025D0E772
:104D1000854A136843F480731360FEF759FB064617
:104D2000814B1B6813F4807FC8D1FEF751FB801BB9
:104D30000228F5D90320EDE07A4A136F43F001030E
:104D40001367C9E7774B1A6F42F004021A671A6FAC
:104D500042F001021A67BFE7FEF73AFB0646714BC5
:104D60001B6F13F0020F08D0FEF732FB801B41F2DD
:104D700088339842F3D90320CCE0002D3CD1A369BD
:104D8000022B3FD8A369002B00F0C380654A9268CC
:104D900002F00C02082A00F09180022B7AD1E3691C
:104DA00013B1B3F5800F33D1236A023B3D2B35D8C5
:104DB000636A323BB3F5BF7F36D8A26A082A39D876
:104DC0004FF4AA73D34013F0010F33D0E36A023BD0
:104DD0000D2B35D8564B00221A66FEF7F9FA054618
:104DE000504B1B6813F0007F30D0FEF7F1FA401BE8
:104DF0000228F5D903208DE04A4A136C23F0805332
:104E00001364BCE740F2CD114848FDF7F5FFB9E760
:104E10004FF4EB714548FDF7EFFFC5E740F2D711BE
:104E20004248FDF7E9FFC3E74FF4EC713F48FDF757
:104E3000E3FFC2E740F2D9113C48FDF7DDFFC5E7CB
:104E40004FF4ED713948FDF7D7FFC3E7E369226AF4
:104E50001343626A43EA8213A26A5208013A43EAA0
:104E60000243E26A43EA02632E4A5360304B012256
:104E70001A66FEF7ADFA04462A4B1B6813F0007F52
:104E800006D1FEF7A5FA001B0228F5D9032041E060
:104E900000203FE0264B00221A66FEF799FA0446EE
:104EA000204B1B6813F0007F06D0FEF791FA001B21
:104EB0000228F5D903202DE000202BE0012B2BD078
:104EC000184B5B6803F48001E269914226D103F03C
:104ED0003F02216A8A4223D1616A47F6C0721A40B2
:104EE000B2EB811F26D103F44031A26A5208013A85
:104EF000B1EB024F20D103F07063E26AB3EB026FB3
:104F00001CD1002006E001207047012002E00120B2
:104F100000E0002002B070BD0120FBE70120F9E7AE
:104F20000120F7E700380240007000405CCC000828
:104F3000000047420120EDE70120EBE70120E9E70F
:104F400008B5334B9B6803F00C03042B5BD0082B94
:104F50005BD12F4B5A6802F03F025B6813F4800F5D
:104F60002CD02B4B5868C0F388104FEA401CBCEB88
:104F7000000C6EEB0E0E4FEA8E1343EA9C634FEA71
:104F80008C11B1EB0C0163EB0E03DB0043EA5173B0
:104F9000C90011EB000C43F10003590200234FEA52
:104FA0004C2041EADC51FBF76DFD194B5B68C3F304
:104FB000014301335B00B0FBF3F008BD144B5868AC
:104FC000C0F388104FEA401CBCEB000C6EEB0E0ED9
:104FD0004FEA8E1343EA9C634FEA8C11B1EB0C014C
:104FE00063EB0E03DB0043EA5173C90011EB000CC5
:104FF00043F10003990200234FEA8C2041EA9C51BF
:10500000FBF740FDD1E70348D7E70348D5E700BFEA
:105010000038024000127A000024F400002800F05A
:10502000FA8070B50D4604460368013B0E2B32D85A
:10503000072D36D87C4B1B6803F00703AB4208D220
:10504000EBB2794A1370136803F00703AB4240F0E8
:10505000E480236813F0020F3ED013F0040F04D055
:10506000724A936843F4E0539360236813F0080F87
:1050700004D06E4A936843F460439360A36823B3FB
:10508000C02B22D016D8A02B1FD010D8802B1CD01C
:10509000902B1AD014E040F25A216548FDF7ACFE7F
:1050A000C6E740F25B216248FDF7A6FEC2E7B02BDF
:1050B0000BD005E0E02B08D0F02B06D0D02B04D08D
:1050C00040F27E215A48FDF797FE584A936823F034
:1050D000F003A1680B439360236813F0010F3CD0E9
:1050E0006368032B25D86368012B28D09A1E012AF8
:1050F0002CD94E4A126812F0020F00F090804B49F2
:105100008A6822F0030213438B60FEF761F90646BA
:10511000464B9B6803F00C036268B3EB820F1CD014
:10512000FEF756F9801B41F288339842F0D90320EC
:1051300064E040F285213E48FDF75EFED3E73B4A3E
:10514000126812F4003FDAD1012057E0374A1268A2
:1051500012F0007FD3D1012050E0334B1B6803F0E5
:105160000703AB4207D9EAB22F4B1A701B6803F052
:105170000703AB4255D1236813F0040F14D0E36842
:105180005BB1B3F5805F08D0B3F5A05F05D0B3F590
:10519000C05F02D0B3F5E05F31D1244A936823F4B5
:1051A000E053E1680B439360236813F0080F15D0B8
:1051B00023695BB1B3F5805F08D0B3F5A05F05D07C
:1051C000B3F5C05F02D0B3F5E05F1ED1174A936814
:1051D00023F46043216943EAC1039360FFF7B0FE03
:1051E000124B9B68C3F30313124AD35CD840124B93
:1051F0001860124B1868FDF723FE002070BD40F2C6
:10520000C3210B48FDF7F8FDC7E740F2CA21084863
:10521000FDF7F2FDDAE7012070470120EEE70120FB
:10522000ECE70120EAE700BF003C02400038024002
:105230005CCC000858CF0008140700201C07002091
:10524000014B1868704700BF1407002008B5FFF72E
:10525000F7FF044B9B68C3F38223034AD35CD84017
:1052600008BD00BF0038024050CF000808B5FFF766
:10527000E7FF044B9B68C3F34233034AD35CD84037
:1052800008BD00BF0038024050CF00080F23036064
:105290000B4B9A6802F0030242609A6802F0F00237
:1052A00082609A6802F4E052C2609B68DB0803F4F3
:1052B000E0530361034B1B6803F007030B60704767
:1052C00000380240003C02407047000010B5044620
:1052D00003683E4A934237D0B3F1804F34D0A2F5F1
:1052E0007C42934230D002F5806293422CD002F58A
:1052F0008062934228D002F58062934224D002F566
:105300008062934220D002F5704293421CD002F595
:105310007052934218D002F58062934214D002F585
:105320008062934210D0A2F5983293420CD002F5DD
:105330008062934208D002F58062934204D04FF419
:10534000E8712348FDF758FD94F83D30DBB2012B9E
:1053500037D1022384F83D302268D36843F001033B
:10536000D3602368194A934220D0B3F1804F1DD0F7
:10537000A2F57C42934219D002F58062934215D087
:1053800002F58062934211D002F5784293420DD02B
:1053900002F57052934209D0A2F59432934205D09F
:1053A0001A6842F001021A6000200BE09A6802F0CD
:1053B0000702062A07D01A6842F001021A6000208C
:1053C00000E0012010BD0020FCE700BF000001400C
:1053D000BCCC0008704770477047704770B50446F2
:1053E0000368DE681D6915F0020F10D016F0020F79
:1053F0000DD06FF002021A610123037703689B69E5
:1054000013F0030F5ED0FFF7E6FF0023237715F0BC
:10541000040F12D016F0040F0FD023686FF00402AF
:105420001A610223237723689B6913F4407F4FD0CE
:105430002046FFF7D0FF0023237715F0080F12D086
:1054400016F0080F0FD023686FF008021A610423CA
:1054500023772368DB6913F0030F40D02046FFF762
:10546000BAFF0023237715F0100F12D016F0100F9B
:105470000FD023686FF010021A6108232377236886
:10548000DB6913F4407F31D02046FFF7A4FF0023EF
:10549000237715F0010F02D016F0010F2DD115F072
:1054A000800F02D016F0800F2FD115F0400F02D0E0
:1054B00016F0400F31D115F0200F02D016F0200F5A
:1054C00033D170BDFFF786FF2046FFF785FF9CE7CD
:1054D0002046FFF77FFF2046FFF77EFFABE7204621
:1054E000FFF778FF2046FFF777FFBAE72046FFF780
:1054F00071FF2046FFF770FFC9E723686FF00102D4
:105500001A612046FDF7F6FBC9E723686FF08002B9
:105510001A61204600F033F9C7E723686FF04002B4
:105520001A612046FFF759FFC5E723686FF0200294
:105530001A61204600F022F9C3E700000368344AEC
:10554000904212D0B0F1804F0FD0A2F57C42904231
:105550000BD002F58062904207D002F58062904243
:1055600003D002F57842904203D123F070034A68D9
:105570001343274A90422AD0B0F1804F27D0A2F59A
:105580007C42904223D002F5806290421FD002F507
:10559000806290421BD002F57842904217D002F50B
:1055A0007052904213D002F5806290420FD002F503
:1055B000806290420BD0A2F59832904207D002F55B
:1055C0008062904203D002F58062904203D123F4BE
:1055D0004073CA68134323F080034A69134303608E
:1055E0008B68C3620B688362094B984203D003F552
:1055F0008063984201D10B6903630123436103690E
:1056000013F0010F03D0036923F001030361704716
:1056100000000140002800F0A98010B5044603688E
:10562000534A934237D0B3F1804F34D0A2F57C4235
:10563000934230D002F5806293422CD002F5806212
:10564000934228D002F58062934224D002F5806212
:10565000934220D002F5704293421CD002F5705262
:10566000934218D002F58062934214D002F5806212
:10567000934210D0A2F5983293420CD002F580628A
:10568000934208D002F58062934204D040F2131195
:105690003848FDF7B1FBA3683BB1102B05D0202B98
:1056A00003D0402B01D0602B17D123692BB1B3F568
:1056B000807F02D0B3F5007F15D12368B3F1804F0E
:1056C00017D02D4A934214D0E368013B4FF6FE7287
:1056D00093428CBF002301230FE04FF48A712548C9
:1056E000FDF78AFBE1E740F215112248FDF784FB44
:1056F000E3E7E368003B18BF01232BB3A3690BB1B9
:10570000802B27D194F83D3053B3022384F83D30E9
:10571000214651F8040BFFF711FF012384F84630AE
:1057200084F83E3084F83F3084F8403084F84130CB
:1057300084F8423084F8433084F8443084F84530AB
:1057400084F83D30002010BD4FF48B710948FDF7FF
:1057500053FBD3E740F217110648FDF74DFBD1E7A5
:1057600084F83C302046FFF7AFFDCEE701207047BC
:1057700000000140BCCC0008000C0040704770479E
:10578000026802F10C0353E8003F23F0C0030C321F
:1057900042E800310029F3D1202380F841307047DE
:1057A000026802F10C0353E8003F23F490730C32BB
:1057B00042E800310029F3D1026802F1140353E8F2
:1057C000003F23F00103143242E800310029F3D1F5
:1057D000036B012B05D0202380F8423000230363A4
:1057E0007047026802F10C0353E8003F23F01003F6
:1057F0000C3242E800310029F3D1ECE790F8413057
:10580000DBB2212B01D0022070478368B3F5805FA3
:1058100017D0036A5A1C02621A7803685A60C38C54
:105820009BB2013B9BB2C3844BB90268D36823F09F
:105830008003D3600268D36843F04003D360002044
:1058400070470369002BE4D1036A1B880268C3F325
:1058500008035360036A02330362E0E710B50446AD
:105860004268574B9A423FD8E36813B1B3F5005FE3
:1058700040D123692BB1B3F5806F02D0B3F5C06F6F
:105880003ED163694FF6F372134200D123B940F65B
:1058900078614C48FDF7B0FA2268136923F440534D
:1058A000E1680B431361A36822691A4363691A43D1
:1058B000E3691A432168CB6823F4164323F00C03F1
:1058C0001343CB602268536923F44073A1690B43EF
:1058D000536123683C4A934218D002F58062934298
:1058E00014D0FFF7B3FC13E040F675613548FDF7BF
:1058F00083FAB9E740F676613248FDF77DFAB8E7FA
:1059000040F677612F48FDF777FABAE7FFF7AEFC6C
:10591000E369B3F5004F29D00021031849411B1852
:1059200041F10001C90041EA5371DB0018186368B6
:105930004FEA83024FEA937341F10001FBF7A2F8AB
:10594000224AA2FB00314909642303FB11031B0116
:105950003233A2FB03235B0903F0F00202EB0112D6
:1059600003F00F03216813448B6010BD002302185D
:1059700043EB0301121841F10001C90041EA5271E1
:10598000D200101841F10001626892185B41FBF7E8
:1059900079F80E4AA2FB00314909642303FB110385
:1059A000DB003233A2FB03235B095A0002F4F872D6
:1059B00002EB011203F00703216813448B60D4E764
:1059C000A037A0001CCD0008001001401F85EB513E
:1059D000002800F08C8010B504468369002B56D057
:1059E0000368444A934210D0A2F54C4293420CD033
:1059F00002F58062934208D002F54C42934204D0F3
:105A000040F273113C48FDF7F7F9A36943B1B3F5D0
:105A1000807F05D0B3F5007F02D0B3F5407F30D151
:105A2000A36813B1B3F5805F4FD1E36913B1B3F548
:105A3000004F50D194F84130002B52D0242384F8E9
:105A400041302268D36823F40053D3602046FFF727
:105A500005FF2268136923F4904313612268536998
:105A600023F02A0353612268D36843F40053D360C0
:105A700000206064202384F8413084F84230606361
:105A800010BD4FF4BA711C48FDF7B6F9C8E70368BA
:105A9000184A9342C4D0A2F54C429342C0D002F5BA
:105AA00080629342BCD002F580629342B8D002F586
:105AB00080629342B4D002F544429342B0D04FF496
:105AC000BC710D48FDF798F9AAE74FF4BD710A487B
:105AD000FDF792F9A9E740F27B110748FDF78CF931
